{
  "contractName": "ChainMessage",
  "abi": [
    {
      "constant": true,
      "inputs": [
        {
          "name": "",
          "type": "address"
        }
      ],
      "name": "message",
      "outputs": [
        {
          "name": "",
          "type": "string"
        }
      ],
      "payable": false,
      "stateMutability": "view",
      "type": "function"
    },
    {
      "inputs": [
        {
          "name": "init",
          "type": "string"
        }
      ],
      "payable": false,
      "stateMutability": "nonpayable",
      "type": "constructor"
    },
    {
      "anonymous": false,
      "inputs": [
        {
          "indexed": true,
          "name": "_to",
          "type": "address"
        },
        {
          "indexed": false,
          "name": "_msg",
          "type": "string"
        }
      ],
      "name": "SentMessage",
      "type": "event"
    },
    {
      "constant": false,
      "inputs": [
        {
          "name": "_to",
          "type": "address"
        },
        {
          "name": "_msg",
          "type": "string"
        }
      ],
      "name": "sendMessage",
      "outputs": [],
      "payable": false,
      "stateMutability": "nonpayable",
      "type": "function"
    },
    {
      "constant": true,
      "inputs": [
        {
          "name": "_of",
          "type": "address"
        }
      ],
      "name": "getMessage",
      "outputs": [
        {
          "name": "_msg",
          "type": "string"
        }
      ],
      "payable": false,
      "stateMutability": "view",
      "type": "function"
    },
    {
      "constant": false,
      "inputs": [
        {
          "name": "_of",
          "type": "address"
        }
      ],
      "name": "clearMessage",
      "outputs": [],
      "payable": false,
      "stateMutability": "nonpayable",
      "type": "function"
    },
    {
      "constant": true,
      "inputs": [
        {
          "name": "a",
          "type": "string"
        },
        {
          "name": "b",
          "type": "string"
        }
      ],
      "name": "strcmp",
      "outputs": [
        {
          "name": "",
          "type": "bool"
        }
      ],
      "payable": false,
      "stateMutability": "pure",
      "type": "function"
    }
  ],
  "bytecode": "0x6060604052341561000f57600080fd5b604051610aef380380610aef83398101604052808051820191905050806000803373ffffffffffffffffffffffffffffffffffffffff1673ffffffffffffffffffffffffffffffffffffffff168152602001908152602001600020908051906020019061007d929190610084565b5050610129565b828054600181600116156101000203166002900490600052602060002090601f016020900481019282601f106100c557805160ff19168380011785556100f3565b828001600101855582156100f3579182015b828111156100f25782518255916020019190600101906100d7565b5b5090506101009190610104565b5090565b61012691905b8082111561012257600081600090555060010161010a565b5090565b90565b6109b7806101386000396000f30060606040526004361061006d576000357c0100000000000000000000000000000000000000000000000000000000900463ffffffff16806355448fe1146100725780639cfbe1a614610124578063a113bb79146101dc578063de6f24bb1461028e578063fe22dbbd1461030a575b600080fd5b341561007d57600080fd5b6100a9600480803573ffffffffffffffffffffffffffffffffffffffff16906020019091905050610343565b6040518080602001828103825283818151815260200191508051906020019080838360005b838110156100e95780820151818401526020810190506100ce565b50505050905090810190601f1680156101165780820380516001836020036101000a031916815260200191505b509250505060405180910390f35b341561012f57600080fd5b6101c2600480803590602001908201803590602001908080601f0160208091040260200160405190810160405280939291908181526020018383808284378201915050505050509190803590602001908201803590602001908080601f0160208091040260200160405190810160405280939291908181526020018383808284378201915050505050509190505061045b565b604051808215151515815260200191505060405180910390f35b34156101e757600080fd5b610213600480803573ffffffffffffffffffffffffffffffffffffffff16906020019091905050610534565b6040518080602001828103825283818151815260200191508051906020019080838360005b83811015610253578082015181840152602081019050610238565b50505050905090810190601f1680156102805780820380516001836020036101000a031916815260200191505b509250505060405180910390f35b341561029957600080fd5b610308600480803573ffffffffffffffffffffffffffffffffffffffff1690602001909190803590602001908201803590602001908080601f016020809104026020016040519081016040528093929190818152602001838380828437820191505050505050919050506105e4565b005b341561031557600080fd5b610341600480803573ffffffffffffffffffffffffffffffffffffffff16906020019091905050610714565b005b61034b6108d2565b6103536108d2565b60008373ffffffffffffffffffffffffffffffffffffffff161415151561037957600080fd5b6000808473ffffffffffffffffffffffffffffffffffffffff1673ffffffffffffffffffffffffffffffffffffffff1681526020019081526020016000208054600181600116156101000203166002900480601f01602080910402602001604051908101604052809291908181526020018280546001816001161561010002031660029004801561044b5780601f106104205761010080835404028352916020019161044b565b820191906000526020600020905b81548152906001019060200180831161042e57829003601f168201915b5050505050905080915050919050565b6000816040518082805190602001908083835b602083101515610493578051825260208201915060208101905060208303925061046e565b6001836020036101000a038019825116818451168082178552505050505050905001915050604051809103902060001916836040518082805190602001908083835b6020831015156104fa57805182526020820191506020810190506020830392506104d5565b6001836020036101000a03801982511681845116808217855250505050505090500191505060405180910390206000191614905092915050565b60006020528060005260406000206000915090508054600181600116156101000203166002900480601f0160208091040260200160405190810160405280929190818152602001828054600181600116156101000203166002900480156105dc5780601f106105b1576101008083540402835291602001916105dc565b820191906000526020600020905b8154815290600101906020018083116105bf57829003601f168201915b505050505081565b60008273ffffffffffffffffffffffffffffffffffffffff161415151561060a57600080fd5b806000808473ffffffffffffffffffffffffffffffffffffffff1673ffffffffffffffffffffffffffffffffffffffff168152602001908152602001600020908051906020019061065c9291906108e6565b508173ffffffffffffffffffffffffffffffffffffffff167ff2087fb0d399d6aa837cbe817208f2cb19197193f72de3ad39a720a1c3d562a1826040518080602001828103825283818151815260200191508051906020019080838360005b838110156106d65780820151818401526020810190506106bb565b50505050905090810190601f1680156107035780820380516001836020036101000a031916815260200191505b509250505060405180910390a25050565b60008173ffffffffffffffffffffffffffffffffffffffff161415151561073a57600080fd5b3373ffffffffffffffffffffffffffffffffffffffff168173ffffffffffffffffffffffffffffffffffffffff1614151561077457600080fd5b60206040519081016040528060008152506000803373ffffffffffffffffffffffffffffffffffffffff1673ffffffffffffffffffffffffffffffffffffffff16815260200190815260200160002090805190602001906107d69291906108e6565b506108c760206040519081016040528060008152506000803373ffffffffffffffffffffffffffffffffffffffff1673ffffffffffffffffffffffffffffffffffffffff1681526020019081526020016000208054600181600116156101000203166002900480601f0160208091040260200160405190810160405280929190818152602001828054600181600116156101000203166002900480156108bd5780601f10610892576101008083540402835291602001916108bd565b820191906000526020600020905b8154815290600101906020018083116108a057829003601f168201915b505050505061045b565b15156108cf57fe5b50565b602060405190810160405280600081525090565b828054600181600116156101000203166002900490600052602060002090601f016020900481019282601f1061092757805160ff1916838001178555610955565b82800160010185558215610955579182015b82811115610954578251825591602001919060010190610939565b5b5090506109629190610966565b5090565b61098891905b8082111561098457600081600090555060010161096c565b5090565b905600a165627a7a72305820dfc9b6c50447fab8f220a17a0e60fa5c23374065aef2386e6c282502db1c66e20029",
  "source": "pragma solidity ^0.4.0;\n\n\n/// @title Chain Message\ncontract ChainMessage {\n    /*\n    * @title Chain Message\n    * @author Austin Hester\n    * @dev This line is for developers only\n    */\n\n    mapping (address => string) public message;\n\n    event SentMessage(address indexed _to, string _msg);\n\n    function ChainMessage(string init) public {\n        message[msg.sender] = init;\n    }\n\n    function sendMessage(\n        address _to,\n        string _msg\n    ) public {\n        require(_to != 0x0);\n        message[_to] = _msg;\n        SentMessage(_to, _msg);\n        //assert(strcmp(_msg, message[_to]));\n    }\n\n    function getMessage(\n        address _of\n    ) public view returns (string _msg) {\n        require(_of != 0x0);\n        //require(_of == msg.sender);\n        string memory s = message[_of];\n        return s;\n    }\n\n    function clearMessage(\n        address _of\n    ) public {\n        require(_of != 0x0);\n        require(_of == msg.sender);\n        message[msg.sender] = \"\";\n        assert(strcmp(\"\", message[msg.sender]));\n    }\n\n    function strcmp(\n        string a,\n        string b\n    ) public pure returns (bool) {\n        return (keccak256(a) == keccak256(b));\n    }\n\n}\n",
  "sourcePath": "/home/miner/ChainMessage/contracts/ChainMessage.sol",
  "compiler": {
    "name": "solc",
    "version": "0.4.19+commit.c4cbbb05.Emscripten.clang"
  },
  "schemaVersion": "2.0.0",
  "updatedAt": "2018-04-05T19:53:56.546Z"
}